:1000000003308A00A32B0000FF00030E8301A10030
:100010000A08A0008A010408A2007708A300780853
:10002000A4007908A5007A08A60003170D08031399
:10003000A70003170F080313A80003170C080313E6
:10004000A90003170E080313AA00831383128B1D44
:100050002B280B184C28220884002308F7002408BA
:10006000F8002508F9002608FA00270803178D0074
:100070000313280803178F000313290803178C00A4
:1000800003132A0803178E00031320088A00210E89
:100090008300FF0E7F0E09008A110A12F0280A1051
:1000A0008A100A11820728340F34013406340A10EA
:1000B0008A100A118207003400344530840083130B
:1000C0000008031970280630F800F701F70B6628BE
:1000D000F80B65287B30F700F70B6C28800B632842
:1000E00008004C187528081276280816831608127E
:1000F0008312CC187D2888127E28881683168812D1
:1001000083124C19852808138628081783160813AC
:100110008312CC198D2888138E288817831688138C
:10012000891083128914831689108312891008009C
:100130008316091183120911C908031DA128091189
:10014000A228091583160911A630F700F70BA62877
:1001500000008910831289104A0ECB000F30CB05A6
:100160004B08CC0071204A080F39CB00CC0071201D
:10017000080044080C3A0319C728063A0319CF2887
:10018000073A0319CF28053A0319E528EA28C901D7
:100190000130CA0098200230C5005D20EF280130F0
:1001A000C5000230C600460BD628D9284030C7000B
:1001B000DA28C70101304502C70747088038C80060
:1001C000C9014808CA009820EF28C9011030CA00A8
:1001D0009820EF280130C9004408CA009820080080
:1001E0008B110B10C001F0308316860083120610AD
:1001F00083168600831286148316860083120615E2
:1002000083168600831286151430C5005D20F030F9
:10021000831686008312061A1529F030831686008D
:100220008312061E0D293130C000F030831686007F
:100230008312861A2329F030831686008312861EC5
:100240001B293430C000F030831686008312061B51
:100250003129F030831686008312061F2929373092
:10026000C000F030831686008312861B3F29F030D1
:10027000831686008312861F37292A30C000F0308B
:100280008316860083120614831686008312861056
:100290008316860083120615831686008312861540
:1002A0001430C5005D20F030831686008312061AD4
:1002B0006129F030831686008312061E59293230D8
:1002C000C000F030831686008312861A6F29F03042
:1002D000831686008312861E67293530C000F030F1
:1002E000831686008312061B7D29F0308316860054
:1002F0008312061F75293830C000F030831686003F
:100300008312861B8B29F030831686008312861F8A
:1003100083293030C000F030831686008312061423
:1003200083168600831286148316860083120611B4
:1003300083168600831286151430C5005D20F030C8
:10034000831686008312061AAD29F03083168600C4
:100350008312061EA5293330C000F03083168600B4
:100360008312861ABB29F030831686008312861EFC
:10037000B3293630C000F030831686008312061B86
:10038000C929F030831686008312061FC12939302F
:10039000C000F030831686008312861BD729F03008
:1003A000831686008312861FCF292330C000F030C9
:1003B0008316860083120614831686008312861421
:1003C0008316860083120615831686008312861113
:1003D0001430C5005D20F030831686008312061AA3
:1003E000F929F030831686008312061EF129413068
:1003F000C000F030831686008312861A072AF03078
:10040000831686008312861EFF294230C000F0301A
:10041000831686008312061B152AF0308316860089
:100420008312061F0D2A4330C000F0308316860069
:100430008312861B232AF030831686008312861FC0
:100440001B2A4430C000C008031D282AFF30C0000A
:100450004008F8007808AE002E0F2F2A4B2A3308E8
:10046000033C0318442AB301C001C1012F308400AA
:10047000831340088407410857208000003803197F
:10048000442AC10AC00A362A2F3033078400831356
:100490002E088000B30AD93003178D0002308F0078
:1004A000031008300313C0000B08C1008B13831620
:1004B00003178C170C140000000083120313C11BD8
:1004C0008B1703188B2A03170C087F390313C100FD
:1004D00003170D080313C20003170F080313C3000B
:1004E0004108C400B920420803178D0003134308D4
:1004F00003178F0003130B08C4008B138316031715
:100500008C170C140000000083120313C41B8B17FC
:10051000C00B8B2AAA2A03170C0D0E0D7F3903136B
:10052000C10003170D080313C20003170F080313BC
:10053000C3004108C400B920420803178D0003130B
:10054000430803178F008D0A03198F0A0310031342
:10055000C00B542A2F308400831380080319C22A49
:10056000C1010408C0004110831B41140008C400ED
:10057000B92040088400831341188317840A0319A3
:10058000850AAD2A0B108B15F03083168600831276
:100590000610831686008312861083168600831247
:1005A000061183168600831286110B108A110A1217
:1005B0002B288C296537E8303A10A53900000C103B
:1005C000D432633661326F00831608128312081228
:1005D0008316881283128812831608138312081355
:1005E0008316881383128813831609118312091145
:1005F0008316891083128910AB018B1BAB178B13E9
:100600000F30C5005D20AB1B8B170130B4003408E0
:10061000033C031C1F2BAB018B1BAB178B1303304D
:10062000CC007120AB1B8B17AB018B1BAB178B1353
:100630000530C5005D20AB1B8B17B40A072BAB013F
:100640008B1BAB178B130230CC007120AB1B8B17AD
:10065000B4013408033C031C3C2B34084F20B50084
:10066000AB018B1BAB178B13C9013508CA0098204F
:10067000AB1B8B17B40A292B8A110A12B62B0B0855
:10068000B4008B13831603178C170C1400000000A2
:1006900083120313B41B8B1703170C087F3903193C
:1006A0009F2B0313B40003170D080313B5000317A2
:1006B0000F080313B600AB018B1BAB178B13340869
:1006C000C400B920AB1B8B17350803178D0003132B
:1006D000360803178F0003130B08B7008B1383161C
:1006E00003178C170C140000000083120313B71BB0
:1006F0008B1703170C0D0E0D7F3903199F2B031356
:10070000B40003170D080313B50003170F080313F4
:10071000B600AB018B1BAB178B133408C400B92098
:10072000AB1B8B17350803178D000313360803170F
:100730008F008D0A03198F0A03133F2B031703132E
:100740008A110A12C62B03081F398300B3018316CE
:100750001F149F141F159F1107309C0083138312D1
:10076000AC01AD01831681138312E42AAB018B1B0C
:10077000AB178B130A30C5005D20AB1B8B17DF3026
:1007800003178D0002308F0003133F2B0430B40099
:10079000AB018B1BAB178B13FA30C5005D20AB1B75
:1007A0008B17B40BC82B8B15C0308B04F03083161D
:1007B0008600831206108316860083128610831625
:1007C0008600831206118316860083128611043078
:1007D000B400AB018B1BAB178B13FA30C5005D2047
:0C07E000AB1B8B17B40BE92BE72B63005D
:02400E00323F3F
:00000001FF
;PIC16F877A
;CRC=89B4  CREATED="14-mar-21 14:51"
