:1000000003308A006D2B0000FF00030E8301A10066
:100010000A08A0008A010408A2007708A300780853
:10002000A4007908A5007A08A60003170D08031399
:10003000A70003170F080313A80003170C080313E6
:10004000A90003170E080313AA00831383128B1D44
:100050002B280B184C28220884002308F7002408BA
:10006000F8002508F9002608FA00270803178D0074
:100070000313280803178F000313290803178C00A4
:1000800003132A0803178E00031320088A00210E89
:100090008300FF0E7F0E09008A110A1240290A1000
:1000A0008A100A11820728340F34013406343E3096
:1000B00084008313000803196A280630F800F7014A
:1000C000F70B6028F80B5F287B30F700F70B6628EA
:1000D000800B5D28080045186F2808127028081644
:1000E000831608128312C518772888127828881674
:1000F00083168812831245197F2808138028081751
:10010000831608138312C51987288813882888172F
:100110008316881389108312891483168910831219
:10012000891008008316091183120911C208031DE2
:100130009B2809119C28091583160911A630F70080
:10014000F70BA0280000891083128910430EC40009
:100150000F30C4054408C5006B2043080F39C400A4
:10016000C5006B2008003D080C3A0319C128063A67
:100170000319C928073A0319C928053A0319DF28C2
:10018000E428C2010130C30092200230BE00572093
:10019000E9280130BE000230BF003F0BD028D32831
:1001A0004030C000D428C00101303E02C0074008E2
:1001B0008038C100C2014108C3009220E928C20171
:1001C0001030C3009220E9280130C2003D08C3006E
:1001D000922008000B08B9008B13831603178C17A5
:1001E0000C140000000083120313B91B8B170317B4
:1001F0000C087F3903193E290313B90003170D08B2
:100200000313BA0003170F080313BB003908BD001E
:10021000B3203A0803178D0003133B0803178F0020
:1002200003130B08BC008B13831603178C170C14D5
:100230000000000083120313BC1B8B1703170C0D67
:100240000E0D7F3903193E290313B90003170D085A
:100250000313BA0003170F080313BB003908BD00CE
:10026000B3203A0803178D0003133B0803178F00D0
:100270008D0A03198F0A0313EA28031703130800D2
:100280008B110B10B901F030831686008312061013
:100290008316860083128614831686008312061541
:1002A00083168600831286151430BE005720F03066
:1002B000831686008312061A6529F030831686009D
:1002C0008312061E5D293130B900F0308316860096
:1002D0008312861A7329F030831686008312861ED5
:1002E0006B293430B900F030831686008312061B68
:1002F0008129F030831686008312061F7929373052
:10030000B900F030831686008312861B8F29F030E7
:10031000831686008312861F87292A30B900F030A1
:1003200083168600831206148316860083128610B5
:10033000831686008312061583168600831286159F
:100340001430BE005720F030831686008312061A40
:10035000B129F030831686008312061EA929323097
:10036000B900F030831686008312861ABF29F03058
:10037000831686008312861EB7293530B900F03007
:10038000831686008312061BCD29F0308316860063
:100390008312061FC5293830B900F0308316860055
:1003A0008312861BDB29F030831686008312861F9A
:1003B000D3293030B900F03083168600831206143A
:1003C0008316860083128614831686008312061114
:1003D00083168600831286151430BE005720F03035
:1003E000831686008312061AFD29F03083168600D4
:1003F0008312061EF5293330B900F03083168600CB
:100400008312861A0B2AF030831686008312861E0A
:10041000032A3630B900F030831686008312061B9B
:10042000192AF030831686008312061F112A3930EC
:10043000B900F030831686008312861B272AF0301D
:10044000831686008312861F1F2A2330B900F030DE
:100450008316860083120614831686008312861480
:100460008316860083120615831686008312861172
:100470001430BE005720F030831686008312061A0F
:10048000492AF030831686008312061E412A413025
:10049000B900F030831686008312861A572AF0308E
:1004A000831686008312861E4F2A4230B900F03030
:1004B000831686008312061B652AF0308316860099
:1004C0008312061F5D2A4330B900F0308316860080
:1004D0008312861B732AF030831686008312861FD0
:1004E0006B2A4430B900B908031D782AFF30B900DF
:1004F0003908F8007808AC002C0F7F2AE42A023073
:1005000003178D0003308F00031009300313B90067
:100510000B08BA008B13831603178C170C140000FA
:10052000000083120313BA1B8B170318BF2A03178B
:100530000C087F390313BA0003170D080313BB001F
:1005400003170F080313BC003A08BD00B3203B0893
:1005500003178D0003133C0803178F0003130B08C8
:10056000BD008B13831603178C170C1400000000BA
:1005700083120313BD1B8B17B90BBF2ADE2A031787
:100580000C0D0E0D7F390313BA0003170D0803136A
:10059000BB0003170F080313BC003A08BD00B320CB
:1005A0003B0803178D0003133C0803178F008D0AC7
:1005B00003198F0A03100313B90B882A2C08BD00F6
:1005C000B320FF30AC00EB2A083003178D00033056
:1005D0008F000313EA200B108B15F0308316860072
:1005E00083120610831686008312861083168600F7
:1005F0008312061183168600831286110B108A114E
:100600000A122B280C10C237F4306F1DA0126300A1
:100610000C10D432633661326F000C10D432633662
:1006200061326F0083160812831208128316881233
:1006300083128812831608138312081383168813F3
:1006400083128813831609118312091183168910E6
:1006500083128910AB018B1BAB178B130F30BE00BD
:100660005720AB1B8B170130AD002D08033C031C3A
:100670004D2BAB018B1BAB178B130330C5006B20CD
:10068000AB1B8B17AB018B1BAB178B130530BE005D
:100690005720AB1B8B17AD0A352BAB018B1BAB1750
:1006A0008B130230C5006B20AB1B8B17AD012D08DF
:1006B000033C031C6A2B2D084F20AE00AB018B1BA3
:1006C000AB178B13C2012E08C3009220AB1B8B17F4
:1006D000AD0A572B8A110A127B2B03081F3983009E
:1006E00083161F149F141F159F1107309C0083133E
:1006F00081138312122BAB018B1BAB178B130A30A8
:10070000BE005720AB1B8B170D3003178D00033035
:100710008F000313AB018B1BAB178B13EA20AB1BB2
:100720008B170430AD00AB018B1BAB178B13FA306A
:10073000BE005720AB1B8B17AD0B932B8B15C03016
:100740008B04F03083168600831206108316860011
:100750008312861083168600831206118316860084
:0807600083128611B22B630025
:02400E00323F3F
:00000001FF
;PIC16F877A
;CRC=FE8C  CREATED="14-mar-21 13:24"
